S115B000DE25103737010316FF25DEF005370F1603FF4A
S123C0008E01FFCEB00018CEB009183C18CEB02018FFB02818383434343434A60018E60080
S123C02081FF2606C1FF2602202136373CBDD0003832323234183C18FEB02818A7001808CE
S115C04018FFB028183808180820D0313131313120FE80
S123D000308600A706A707A708A709A70AA604A1052704220A2510A706C601E70A2010A7D3
S123D02009E605E7082008A708E605E7092000A60481002608C6FFE706C601E70AA6058148
S123D040002608C6FFE706C601E70AA60A81012704A608A707A60A8101272CA608A107257B
S123D06004A00720F88100261AA607A706A609A1072504A00720F881002608A607A7068600
S10CD08001A70A6A0720CE353924
S9030000FC
